S01700004553425F50726F6A6563745F4949492E73726563C3
S11300000C942A000C94ED010C9447000C944700C6
S11300100C9447000C9447000C9447000C94470040
S11300200C9447000C9447000C942F020C945E022D
S11300300C9447000C9447000C9447000C94470020
S11300400C9447000C9447000C9447000C94470010
S11300500C94470011241FBECFE5D8E0DEBFCDBF0E
S113006010E0A0E6B0E0EAE4FBE002C005900D92E7
S1130070AC37B107D9F720E0ACE7B0E001C01D927E
S1130080A63AB207E1F70E9449000C94A3050C9428
S11300900000CF93DF93CDB7DEB764970FB6F89423
S11300A0DEBF0FBECDBF8AE10E94700084E1E7E6A7
S11300B0F0E0DE01119601900D928A95E1F70F2E82
S11300C0F5E0EF2EF02D03E026E04FE164E1CE01F0
S11300D001960E945B0161E080E10E949300FFCFE2
S11300E0CF93DF931F92CDB7DEB71982883030F0FB
S11300F099819F5F998388508830D0F7E981F0E037
S1130100EE0FFF1FEE0FFF1FEE0FFF1FE158FF4F13
S1130110E80FF11D10828FE790E00E94C2000F905B
S1130120DF91CF9108950F931F93CF93DF931F9285
S1130130CDB7DEB7182F062F1982883030F08981A9
S11301408F5F898318501830D0F7E981F0E0EE0F03
S1130150FF1FEE0FFF1FEE0FFF1FE158FF4FE10FD0
S1130160F11D81E080838FE790E00E94C2008981C5
S1130170402F612F0E940E010F90DF91CF911F91AC
S11301800F910895BF92CF92DF92EF92FF920F9357
S11301901F93CF93DF938C0160E070E0BB24B39492
S11301A0EB2CF12CC12CD12C22C04C91413021F4E8
S11301B09081982B908311C0EF0190812E2D3F2DBB
S11301C0442311F02C2D3D2D052E02C0220F331F88
S11301D00A94E2F720952923288318963397EE3260
S11301E0F10519F76F5F7F4F6830710569F0562F7D
S11301F08B2D062E01C0880F0A94EAF7D801A60FAA
S1130200B71FEAE3F0E0D1CFDF91CF911F910F91B7
S1130210FF90EF90DF90CF90BF900895CF93DF933E
S11302201F92CDB7DEB78983898190E09C01220FAC
S1130230331F820F931FEAE3F0E0E81BF90B808180
S113024090E0062E02C0959587950A94E2F780FF08
S11302502EC04423B1F0898190E09C01220F331F0A
S1130260820F931FEBE3F0E0E81BF90B208181E0A0
S113027090E002C0880F991F6A95E2F7822B808371
S113028016C0898190E09C01220F331F820F931FB7
S1130290EBE3F0E0E81BF90B208181E090E002C081
S11302A0880F991F6A95E2F78095822380830F90C7
S11302B0DF91CF910895CF92DF92EF920F931F9326
S11302C0CF93DF936C01D62FC42F122F70E080914F
S11302D0A0009091A1000E947C03D092A100C09242
S11302E0A000D695D695D0937E00C83040F080917A
S11302F07D008F5F80937D00C850C830C0F7C093E5
S11303007C00E0917D00F0E0EE0FFF1FEE0FFF1F79
S1130310EE0FFF1FE158FF4FEC0FF11D81E08083CA
S11303208FE790E00E94C200E0929F0083B7877B32
S113033083BF163019F0173029F007C085B7082B92
S113034005BF03C0000F000F05BF89B7816089BFD7
S113035089B7826089BF8FB780688FBF2BB781E070
S113036090E002C0880F991F1A95E2F7822B8BBF89
S1130370DF91CF911F910F91EF90DF90CF9008956F
S113038040916600242F042E000C330B2F5F3F4F47
S113039080917E0090E028173907D4F44F5F409392
S11303A06600E091A000F091A10084E04802E00D15
S11303B0F11D112420E030E04FE753E460817181A6
S11303C0828193810E940F030E948F02862F0895D9
S11303D08FEF8093660080E008951F920F920FB60E
S11303E00F9211242F933F934F935F936F937F93B7
S11303F08F939F93AF93BF93EF93FF930E94C0019A
S11304008CBF80917D0090E09C01220F331F820FEE
S1130410931FEBE3F0E0E81BF90B208181E090E00F
S113042000907C0002C0880F991F0A94E2F7822B87
S1130430808393B780919F00892B83BFFF91EF91B5
S1130440BF91AF919F918F917F916F915F914F91E8
S11304503F912F910F900FBE0F901F9018951F92F0
S11304600F920FB60F9211242F933F938F939F9364
S1130470EF93FF9380917D0090E09C01220F331F46
S1130480820F931FEBE3F0E0E81BF90B208181E07E
S113049090E000907C0002C0880F991F0A94E2F754
S11304A0809582238083FF91EF919F918F913F915B
S11304B02F910F900FBE0F901F9018951F920F92BF
S11304C00FB60F9211242F933F938F939F93EF9323
S11304D0FF938CB78823C1F080917D0090E09C014C
S11304E0220F331F820F931FEBE3F0E0E81BF90B9D
S11304F0208181E090E000907C0002C0880F991F69
S11305000A94E2F7822B8083FF91EF919F918F9160
S11305103F912F910F900FBE0F901F9018950E943E
S1130520EE0288F09F5798F0B92F9927B751B0F091
S1130530E1F0660F771F881F991F1AF0BA95C9F763
S113054014C0B13091F00E940803B1E008950C94F6
S11305500803672F782F8827B85F39F0B93FCCF3A9
S1130560869577956795B395D9F73EF490958095E0
S1130570709561957F4F8F4F9F4F089597F99F67AF
S113058080E870E060E008959FEF80EC0895002417
S11305900A941616170618060906089500240A94E4
S11305A012161306140605060895092E0394000C6A
S11305B011F4882352F0BB0F40F4BF2B11F460FFF9
S11305C004C06F5F7F4F8F4F9F4F089557FD905822
S11305D0440F551F59F05F3F71F04795880F97FB03
S11305E0991F61F09F3F79F08795089512161306BD
S11305F01406551FF2CF4695F1DF08C016161706EC
S11306001806991FF1CF8695710561050894089520
S1130610E894BB2766277727CB0197F908950E94B2
S113062022030C94D5020E94C70238F00E94CE0225
S113063020F0952311F00C94BE020C94C4021124F2
S11306400C9409030E94E60270F3959FC1F3950F81
S113065050E0551F629FF001729FBB27F00DB11D42
S1130660639FAA27F00DB11DAA1F649F6627B00DD2
S1130670A11D661F829F2227B00DA11D621F739FBB
S1130680B00DA11D621F839FA00D611D221F749FC9
S11306903327A00D611D231F849F600D211D822F10
S11306A0762F6A2F11249F5750409AF0F1F0882337
S11306B04AF0EE0FFF1FBB1F661F771F881F915064
S11306C05040A9F79E3F510580F00C94BE020C9453
S11306D009035F3FE4F3983ED4F3869577956795D5
S11306E0B795F795E7959F5FC1F7FE2B880F911D8E
S11306F09695879597F90895A0E0B0E0E2E8F3E0D5
S11307000C947005EC01009721F4CB010E944B047A
S1130710B4C0FC01E60FF71F9C0122503109E21717
S1130720F30708F4A8C0D9010D911C91119706177D
S11307301707B0F00530110508F49BC0C8010497F1
S11307408617970708F495C002501109061B170B6A
S1130750019311936D937C93CF010E94E30489C0AC
S11307605B01A01AB10A4C01800E911EA091A40055
S1130770B091A500612C712CE12CF12C109709F497
S113078046C08D919C911197A815B905B1F56C01DE
S113079042E0C40ED11CCA14DB0478F14C018A185F
S11307A09B08640142E0C40ED11C1296BC901297BF
S11307B01396AC91B5E0CB16D10440F0B282A3837A
S11307C091828082D9016D937C9309C00E5F1F4F83
S11307D0800F911FF90191838083EB2DFA2FE1148F
S11307E0F10431F0D7011396FC93EE93129741C0B4
S11307F0F093A500E093A4003CC06816790608F4C1
S11308003C017D0112960D90BC91A02DB7CF809133
S1130810A2009091A30088169906E1F46616770663
S1130820C8F48091600090916100009741F48DB705
S11308309EB74091640050916500841B950BE817A6
S1130840F907C8F4F093A300E093A200F9017183BF
S113085060830FC0CB010E944B047C01009759F0C8
S1130860A801BE010E944204CE010E94E304C70114
S113087004C0CE0102C080E090E0CDB7DEB7EEE068
S11308800C948C05FB01DC0102C001900D924150D7
S11308905040D8F708950F931F93CF93DF9382307E
S11308A0910510F482E090E0E091A400F091A5009D
S11308B020E030E0A0E0B0E0309719F140815181B0
S11308C00281138148175907C8F08417950769F402
S11308D0109731F012960C93129713961C9327C01D
S11308E00093A4001093A50022C02115310519F02E
S11308F04217530718F49A01BD01EF01DF01F80113
S1130900DBCF21153105F9F0281B390B24303105D3
S113091080F48A819B816115710521F0FB01938329
S1130920828304C09093A5008093A400FE013296B4
S113093044C0FE01E20FF31F8193919322503109C9
S1130940398328833AC02091A2003091A300232B3D
S113095041F420916200309163003093A30020930E
S1130960A20020916000309161002115310541F40D
S11309702DB73EB74091640050916500241B350BA0
S1130980E091A200F091A300E217F307A0F42E1B5C
S11309903F0B2817390778F0AC014E5F5F4F2417DF
S11309A0350748F04E0F5F1F5093A3004093A200F9
S11309B08193919302C0E0E0F0E0CF01DF91CF9109
S11309C01F910F910895CF93DF93009709F481C08D
S11309D0FC01329713821282A091A400B091A50069
S11309E0109781F420813181820F931F2091A200FE
S11309F03091A3002817390751F5F093A300E09331
S1130A00A20067C0ED0120E030E0CE17DF0740F41C
S1130A104A815B819E0141155105F1F0EA01F5CF50
S1130A20D383C28340815181840F951FC817D9078E
S1130A3059F488819981840F951F0296918380834C
S1130A408A819B81938382832115310529F4F09354
S1130A50A500E093A4003DC0E901FB83EA8349912A
S1130A605991C40FD51FEC17FD0761F48081918162
S1130A70840F951F0296E90199838883828193816B
S1130A809B838A83E0E0F0E012968D919C9113970A
S1130A90009719F0FD01DC01F7CF8D919C9111971E
S1130AA09D012E5F3F4F820F931F2091A200309132
S1130AB0A3002817390769F4309729F41092A50088
S1130AC01092A40002C013821282B093A300A093D8
S1130AD0A200DF91CF9108952F923F924F925F929F
S1130AE06F927F928F929F92AF92BF92CF92DF923A
S1130AF0EF92FF920F931F93CF93DF93CDB7DEB79F
S1130B00CA1BDB0B0FB6F894DEBF0FBECDBF099432
S1130B102A88398848885F846E847D848C849B8489
S1130B20AA84B984C884DF80EE80FD800C811B8197
S1130B30AA81B981CE0FD11D0FB6F894DEBF0FBEC6
S10D0B40CDBFED010895F894FFCF36
S1130B4A0000A6002000FFCDCC4C3ECDCCCC3E9A72
S10F0B5A99193FCDCC4C3F0000803F00B7
S9030000FC
